{
  "contractName": "akys",
  "abi": [
    {
      "inputs": [],
      "payable": false,
      "stateMutability": "nonpayable",
      "type": "constructor"
    },
    {
      "constant": false,
      "inputs": [
        {
          "internalType": "address",
          "name": "_userAddress",
          "type": "address"
        },
        {
          "internalType": "string",
          "name": "_role",
          "type": "string"
        }
      ],
      "name": "setUser",
      "outputs": [],
      "payable": false,
      "stateMutability": "nonpayable",
      "type": "function"
    },
    {
      "constant": true,
      "inputs": [
        {
          "internalType": "address",
          "name": "_userAddress",
          "type": "address"
        }
      ],
      "name": "getUserAuth",
      "outputs": [
        {
          "internalType": "string",
          "name": "",
          "type": "string"
        }
      ],
      "payable": false,
      "stateMutability": "view",
      "type": "function"
    },
    {
      "constant": false,
      "inputs": [
        {
          "internalType": "string",
          "name": "_supportID",
          "type": "string"
        },
        {
          "internalType": "string",
          "name": "_personalDataHash",
          "type": "string"
        },
        {
          "internalType": "string",
          "name": "_supportType",
          "type": "string"
        },
        {
          "internalType": "uint256",
          "name": "_supportAmount",
          "type": "uint256"
        },
        {
          "internalType": "string",
          "name": "_sendType",
          "type": "string"
        }
      ],
      "name": "createSupport",
      "outputs": [],
      "payable": false,
      "stateMutability": "nonpayable",
      "type": "function"
    },
    {
      "constant": false,
      "inputs": [
        {
          "internalType": "string",
          "name": "_needID",
          "type": "string"
        },
        {
          "internalType": "string",
          "name": "_personalDataHash",
          "type": "string"
        },
        {
          "internalType": "string",
          "name": "_needType",
          "type": "string"
        },
        {
          "internalType": "uint256",
          "name": "_needAmount",
          "type": "uint256"
        }
      ],
      "name": "createNeed",
      "outputs": [],
      "payable": false,
      "stateMutability": "nonpayable",
      "type": "function"
    },
    {
      "constant": true,
      "inputs": [
        {
          "internalType": "uint256",
          "name": "_supportIndex",
          "type": "uint256"
        }
      ],
      "name": "showSupportByIndex",
      "outputs": [
        {
          "internalType": "string",
          "name": "",
          "type": "string"
        },
        {
          "internalType": "string",
          "name": "",
          "type": "string"
        },
        {
          "internalType": "string",
          "name": "",
          "type": "string"
        },
        {
          "internalType": "uint256",
          "name": "",
          "type": "uint256"
        },
        {
          "internalType": "string",
          "name": "",
          "type": "string"
        }
      ],
      "payable": false,
      "stateMutability": "view",
      "type": "function"
    },
    {
      "constant": true,
      "inputs": [
        {
          "internalType": "uint256",
          "name": "_needIndex",
          "type": "uint256"
        }
      ],
      "name": "showNeedByIndex",
      "outputs": [
        {
          "internalType": "string",
          "name": "",
          "type": "string"
        },
        {
          "internalType": "string",
          "name": "",
          "type": "string"
        },
        {
          "internalType": "string",
          "name": "",
          "type": "string"
        },
        {
          "internalType": "uint256",
          "name": "",
          "type": "uint256"
        }
      ],
      "payable": false,
      "stateMutability": "view",
      "type": "function"
    },
    {
      "constant": true,
      "inputs": [
        {
          "internalType": "string",
          "name": "_supportID",
          "type": "string"
        }
      ],
      "name": "showSupportByID",
      "outputs": [
        {
          "internalType": "string",
          "name": "",
          "type": "string"
        },
        {
          "internalType": "string",
          "name": "",
          "type": "string"
        },
        {
          "internalType": "string",
          "name": "",
          "type": "string"
        },
        {
          "internalType": "uint256",
          "name": "",
          "type": "uint256"
        },
        {
          "internalType": "string",
          "name": "",
          "type": "string"
        }
      ],
      "payable": false,
      "stateMutability": "view",
      "type": "function"
    },
    {
      "constant": true,
      "inputs": [
        {
          "internalType": "string",
          "name": "_needID",
          "type": "string"
        }
      ],
      "name": "showNeedByID",
      "outputs": [
        {
          "internalType": "string",
          "name": "",
          "type": "string"
        },
        {
          "internalType": "string",
          "name": "",
          "type": "string"
        },
        {
          "internalType": "string",
          "name": "",
          "type": "string"
        },
        {
          "internalType": "uint256",
          "name": "",
          "type": "uint256"
        }
      ],
      "payable": false,
      "stateMutability": "view",
      "type": "function"
    },
    {
      "constant": false,
      "inputs": [
        {
          "internalType": "string",
          "name": "_supportID",
          "type": "string"
        }
      ],
      "name": "approveSupport",
      "outputs": [],
      "payable": false,
      "stateMutability": "nonpayable",
      "type": "function"
    },
    {
      "constant": false,
      "inputs": [
        {
          "internalType": "string",
          "name": "_needID",
          "type": "string"
        }
      ],
      "name": "approveNeed",
      "outputs": [],
      "payable": false,
      "stateMutability": "nonpayable",
      "type": "function"
    },
    {
      "constant": false,
      "inputs": [
        {
          "internalType": "string",
          "name": "_supportID",
          "type": "string"
        }
      ],
      "name": "cancelSupport",
      "outputs": [],
      "payable": false,
      "stateMutability": "nonpayable",
      "type": "function"
    },
    {
      "constant": false,
      "inputs": [
        {
          "internalType": "string",
          "name": "_needID",
          "type": "string"
        }
      ],
      "name": "cancelNeed",
      "outputs": [],
      "payable": false,
      "stateMutability": "nonpayable",
      "type": "function"
    },
    {
      "constant": true,
      "inputs": [],
      "name": "showAllApprovedSupports",
      "outputs": [
        {
          "components": [
            {
              "internalType": "string",
              "name": "supportID",
              "type": "string"
            },
            {
              "internalType": "string",
              "name": "personalDataHash",
              "type": "string"
            },
            {
              "internalType": "string",
              "name": "supportType",
              "type": "string"
            },
            {
              "internalType": "uint256",
              "name": "supportAmount",
              "type": "uint256"
            },
            {
              "internalType": "string",
              "name": "sendType",
              "type": "string"
            }
          ],
          "internalType": "struct akys.SupportOffer[]",
          "name": "",
          "type": "tuple[]"
        }
      ],
      "payable": false,
      "stateMutability": "view",
      "type": "function"
    },
    {
      "constant": true,
      "inputs": [],
      "name": "showAllApprovedNeeds",
      "outputs": [
        {
          "components": [
            {
              "internalType": "string",
              "name": "needID",
              "type": "string"
            },
            {
              "internalType": "string",
              "name": "personalDataHash",
              "type": "string"
            },
            {
              "internalType": "string",
              "name": "needType",
              "type": "string"
            },
            {
              "internalType": "uint256",
              "name": "needAmount",
              "type": "uint256"
            }
          ],
          "internalType": "struct akys.NeedOffer[]",
          "name": "",
          "type": "tuple[]"
        }
      ],
      "payable": false,
      "stateMutability": "view",
      "type": "function"
    },
    {
      "constant": true,
      "inputs": [
        {
          "internalType": "string",
          "name": "_supportID",
          "type": "string"
        }
      ],
      "name": "showSupportStatus",
      "outputs": [
        {
          "internalType": "string",
          "name": "",
          "type": "string"
        }
      ],
      "payable": false,
      "stateMutability": "view",
      "type": "function"
    },
    {
      "constant": true,
      "inputs": [
        {
          "internalType": "string",
          "name": "_needID",
          "type": "string"
        }
      ],
      "name": "showNeedStatus",
      "outputs": [
        {
          "internalType": "string",
          "name": "",
          "type": "string"
        }
      ],
      "payable": false,
      "stateMutability": "view",
      "type": "function"
    },
    {
      "constant": true,
      "inputs": [],
      "name": "showCanceledSupports",
      "outputs": [
        {
          "components": [
            {
              "internalType": "string",
              "name": "supportID",
              "type": "string"
            },
            {
              "internalType": "string",
              "name": "personalDataHash",
              "type": "string"
            },
            {
              "internalType": "string",
              "name": "supportType",
              "type": "string"
            },
            {
              "internalType": "uint256",
              "name": "supportAmount",
              "type": "uint256"
            },
            {
              "internalType": "string",
              "name": "sendType",
              "type": "string"
            }
          ],
          "internalType": "struct akys.SupportOffer[]",
          "name": "",
          "type": "tuple[]"
        }
      ],
      "payable": false,
      "stateMutability": "view",
      "type": "function"
    },
    {
      "constant": true,
      "inputs": [],
      "name": "showCanceledNeeds",
      "outputs": [
        {
          "components": [
            {
              "internalType": "string",
              "name": "needID",
              "type": "string"
            },
            {
              "internalType": "string",
              "name": "personalDataHash",
              "type": "string"
            },
            {
              "internalType": "string",
              "name": "needType",
              "type": "string"
            },
            {
              "internalType": "uint256",
              "name": "needAmount",
              "type": "uint256"
            }
          ],
          "internalType": "struct akys.NeedOffer[]",
          "name": "",
          "type": "tuple[]"
        }
      ],
      "payable": false,
      "stateMutability": "view",
      "type": "function"
    },
    {
      "constant": true,
      "inputs": [],
      "name": "showTotalSupportCount",
      "outputs": [
        {
          "internalType": "uint256",
          "name": "count",
          "type": "uint256"
        }
      ],
      "payable": false,
      "stateMutability": "view",
      "type": "function"
    },
    {
      "constant": true,
      "inputs": [],
      "name": "showTotalNeedCount",
      "outputs": [
        {
          "internalType": "uint256",
          "name": "count",
          "type": "uint256"
        }
      ],
      "payable": false,
      "stateMutability": "view",
      "type": "function"
    }
  ],
  "bytecode": "0x60806040523480156200001157600080fd5b506040518060400160405280600581526020017f41444d494e000000000000000000000000000000000000000000000000000000815250600860003373ffffffffffffffffffffffffffffffffffffffff1673ffffffffffffffffffffffffffffffffffffffff16815260200190815260200160002090805190602001906200009c929190620000a3565b5062000152565b828054600181600116156101000203166002900490600052602060002090601f016020900481019282601f10620000e657805160ff191683800117855562000117565b8280016001018555821562000117579182015b8281111562000116578251825591602001919060010190620000f9565b5b5090506200012691906200012a565b5090565b6200014f91905b808211156200014b57600081600090555060010162000131565b5090565b90565b61517480620001626000396000f3fe608060405234801561001057600080fd5b506004361061012c5760003560e01c80638d0f4895116100ad578063ae25d09411610071578063ae25d09414610361578063d0a2df4b1461037f578063d29a47081461039d578063d3e36dd0146103bb578063fa9e2f1e146103d75761012c565b80638d0f48951461028e5780639a10ef0a146102c2578063a71465ea146102f6578063a8e7668214610312578063ab0bdd89146103455761012c565b806342c81d63116100f457806342c81d63146101d35780634417e1c61461020357806371762fb8146102365780637a134405146102545780637e46c077146102725761012c565b806309d9a4db146101315780631d0ec5a91461014d5780632ca414571461016957806330d28194146101995780633f1a51b8146101b7575b600080fd5b61014b60048036036101469190810190614706565b610407565b005b61016760048036036101629190810190614706565b6109c3565b005b610183600480360361017e9190810190614689565b611132565b6040516101909190614e29565b60405180910390f35b6101a16112e0565b6040516101ae9190614f36565b60405180910390f35b6101d160048036036101cc91908101906146b2565b6112ed565b005b6101ed60048036036101e89190810190614706565b611412565b6040516101fa9190614e29565b60405180910390f35b61021d60048036036102189190810190614706565b61159f565b60405161022d9493929190614e4b565b60405180910390f35b61023e61181d565b60405161024b9190614e07565b60405180910390f35b61025c611b0e565b6040516102699190614de5565b60405180910390f35b61028c60048036036102879190810190614747565b611d5d565b005b6102a860048036036102a39190810190614706565b6121b2565b6040516102b9959493929190614ea5565b60405180910390f35b6102dc60048036036102d791908101906148c9565b6124f5565b6040516102ed959493929190614ea5565b60405180910390f35b610310600480360361030b91908101906147f2565b612829565b005b61032c600480360361032791908101906148c9565b612cf9565b60405161033c9493929190614e4b565b60405180910390f35b61035f600480360361035a9190810190614706565b612f6b565b005b610369613782565b6040516103769190614f36565b60405180910390f35b61038761378f565b6040516103949190614de5565b60405180910390f35b6103a56139de565b6040516103b29190614e07565b60405180910390f35b6103d560048036036103d09190810190614706565b613ccf565b005b6103f160048036036103ec9190810190614706565b614233565b6040516103fe9190614e29565b60405180910390f35b6040518060400160405280600781526020017f434845434b4552000000000000000000000000000000000000000000000000008152508060405160200161044e9190614e29565b60405160208183030381529060405280519060200120600860003373ffffffffffffffffffffffffffffffffffffffff1673ffffffffffffffffffffffffffffffffffffffff1681526020019081526020016000206040516020016104b39190614f14565b60405160208183030381529060405280519060200120146104d357600080fd5b60066009836040516104e59190614d78565b908152602001604051809103902090806001815401808255809150509060018203906000526020600020906005020160009091929091909150600082018160000190805460018160011615610100020316600290046105459291906143c0565b506001820181600101908054600181600116156101000203166002900461056d9291906143c0565b50600282018160020190805460018160011615610100020316600290046105959291906143c0565b5060038201548160030155600482018160040190805460018160011615610100020316600290046105c79291906143c0565b505050506040516020016105da90614da6565b60405160208183030381529060405280519060200120600b836040516106009190614d78565b908152602001604051809103902060405160200161061e9190614d8f565b6040516020818303038152906040528051906020012014156107925760008090505b600280549050816fffffffffffffffffffffffffffffffff16101561078c5760098360405161066f9190614d78565b90815260200160405180910390206000016040516020016106909190614f14565b604051602081830303815290604052805190602001206002826fffffffffffffffffffffffffffffffff16815481106106c557fe5b90600052602060002090600502016000016040516020016106e69190614f14565b60405160208183030381529060405280519060200120141561077f576002816fffffffffffffffffffffffffffffffff168154811061072157fe5b9060005260206000209060050201600080820160006107409190614447565b6001820160006107509190614447565b6002820160006107609190614447565b60038201600090556004820160006107789190614447565b505061078c565b8080600101915050610640565b50610956565b6040516020016107a190614dd0565b60405160208183030381529060405280519060200120600b836040516107c79190614d78565b90815260200160405180910390206040516020016107e59190614d8f565b6040516020818303038152906040528051906020012014156109555760008090505b600480549050816fffffffffffffffffffffffffffffffff161015610953576009836040516108369190614d78565b90815260200160405180910390206000016040516020016108579190614f14565b604051602081830303815290604052805190602001206004826fffffffffffffffffffffffffffffffff168154811061088c57fe5b90600052602060002090600502016000016040516020016108ad9190614f14565b604051602081830303815290604052805190602001201415610946576004816fffffffffffffffffffffffffffffffff16815481106108e857fe5b9060005260206000209060050201600080820160006109079190614447565b6001820160006109179190614447565b6002820160006109279190614447565b600382016000905560048201600061093f9190614447565b5050610953565b8080600101915050610807565b505b5b6009826040516109669190614d78565b9081526020016040518091039020600080820160006109859190614447565b6001820160006109959190614447565b6002820160006109a59190614447565b60038201600090556004820160006109bd9190614447565b50505050565b6040518060400160405280600781526020017f434845434b45520000000000000000000000000000000000000000000000000081525080604051602001610a0a9190614e29565b60405160208183030381529060405280519060200120600860003373ffffffffffffffffffffffffffffffffffffffff1673ffffffffffffffffffffffffffffffffffffffff168152602001908152602001600020604051602001610a6f9190614f14565b6040516020818303038152906040528051906020012014610a8f57600080fd5b6040518060400160405280600881526020017f415050524f564544000000000000000000000000000000000000000000000000815250600c83604051610ad59190614d78565b90815260200160405180910390209080519060200190610af692919061448f565b5060006005805490501415610ce7576005600a83604051610b179190614d78565b90815260200160405180910390209080600181540180825580915050906001820390600052602060002090600402016000909192909190915060008201816000019080546001816001161561010002031660029004610b779291906143c0565b5060018201816001019080546001816001161561010002031660029004610b9f9291906143c0565b5060028201816002019080546001816001161561010002031660029004610bc79291906143c0565b506003820154816003015550505060008090505b600380549050811015610ce157600a83604051610bf89190614d78565b9081526020016040518091039020600001604051602001610c199190614d8f565b6040516020818303038152906040528051906020012060038281548110610c3c57fe5b9060005260206000209060040201600001604051602001610c5d9190614d8f565b604051602081830303815290604052805190602001201415610cd45760038181548110610c8657fe5b906000526020600020906004020160008082016000610ca59190614447565b600182016000610cb59190614447565b600282016000610cc59190614447565b60038201600090555050610ce1565b8080600101915050610bdb565b5061112e565b600080905060008090505b600580549050811015610f4857604051602001610d0e90614dbb565b6040516020818303038152906040528051906020012060058281548110610d3157fe5b9060005260206000209060040201600001604051602001610d529190614d8f565b604051602081830303815290604052805190602001201415610f3b5760008090505b600380549050811015610f3957600a85604051610d919190614d78565b9081526020016040518091039020600001604051602001610db29190614d8f565b6040516020818303038152906040528051906020012060038281548110610dd557fe5b9060005260206000209060040201600001604051602001610df69190614d8f565b604051602081830303815290604052805190602001201415610f2c5760038181548110610e1f57fe5b906000526020600020906004020160058381548110610e3a57fe5b906000526020600020906004020160008201816000019080546001816001161561010002031660029004610e6f9291906143c0565b5060018201816001019080546001816001161561010002031660029004610e979291906143c0565b5060028201816002019080546001816001161561010002031660029004610ebf9291906143c0565b506003820154816003015590505060038181548110610eda57fe5b906000526020600020906004020160008082016000610ef99190614447565b600182016000610f099190614447565b600282016000610f199190614447565b6003820160009055505060019250610f39565b8080600101915050610d74565b505b8080600101915050610cf2565b508061112c576005600a84604051610f609190614d78565b90815260200160405180910390209080600181540180825580915050906001820390600052602060002090600402016000909192909190915060008201816000019080546001816001161561010002031660029004610fc09291906143c0565b5060018201816001019080546001816001161561010002031660029004610fe89291906143c0565b50600282018160020190805460018160011615610100020316600290046110109291906143c0565b506003820154816003015550505060008090505b60038054905081101561112a57600a846040516110419190614d78565b90815260200160405180910390206000016040516020016110629190614d8f565b604051602081830303815290604052805190602001206003828154811061108557fe5b90600052602060002090600402016000016040516020016110a69190614d8f565b60405160208183030381529060405280519060200120141561111d57600381815481106110cf57fe5b9060005260206000209060040201600080820160006110ee9190614447565b6001820160006110fe9190614447565b60028201600061110e9190614447565b6003820160009055505061112a565b8080600101915050611024565b505b505b5050565b60606040518060400160405280600581526020017f41444d494e0000000000000000000000000000000000000000000000000000008152508060405160200161117b9190614e29565b60405160208183030381529060405280519060200120600860003373ffffffffffffffffffffffffffffffffffffffff1673ffffffffffffffffffffffffffffffffffffffff1681526020019081526020016000206040516020016111e09190614f14565b604051602081830303815290604052805190602001201461120057600080fd5b600860008473ffffffffffffffffffffffffffffffffffffffff1673ffffffffffffffffffffffffffffffffffffffff1681526020019081526020016000208054600181600116156101000203166002900480601f0160208091040260200160405190810160405280929190818152602001828054600181600116156101000203166002900480156112d35780601f106112a8576101008083540402835291602001916112d3565b820191906000526020600020905b8154815290600101906020018083116112b657829003601f168201915b5050505050915050919050565b6000600380549050905090565b6040518060400160405280600581526020017f41444d494e000000000000000000000000000000000000000000000000000000815250806040516020016113349190614e29565b60405160208183030381529060405280519060200120600860003373ffffffffffffffffffffffffffffffffffffffff1673ffffffffffffffffffffffffffffffffffffffff1681526020019081526020016000206040516020016113999190614f14565b60405160208183030381529060405280519060200120146113b957600080fd5b81600860008573ffffffffffffffffffffffffffffffffffffffff1673ffffffffffffffffffffffffffffffffffffffff168152602001908152602001600020908051906020019061140c92919061448f565b50505050565b60606040518060400160405280600781526020017f434845434b4552000000000000000000000000000000000000000000000000008152508060405160200161145b9190614e29565b60405160208183030381529060405280519060200120600860003373ffffffffffffffffffffffffffffffffffffffff1673ffffffffffffffffffffffffffffffffffffffff1681526020019081526020016000206040516020016114c09190614f14565b60405160208183030381529060405280519060200120146114e057600080fd5b600b836040516114f09190614d78565b90815260200160405180910390208054600181600116156101000203166002900480601f0160208091040260200160405190810160405280929190818152602001828054600181600116156101000203166002900480156115925780601f1061156757610100808354040283529160200191611592565b820191906000526020600020905b81548152906001019060200180831161157557829003601f168201915b5050505050915050919050565b606080606060006060600a866040516115b89190614d78565b90815260200160405180910390206000018054600181600116156101000203166002900480601f01602080910402602001604051908101604052809291908181526020018280546001816001161561010002031660029004801561165d5780601f106116325761010080835404028352916020019161165d565b820191906000526020600020905b81548152906001019060200180831161164057829003601f168201915b505050505090506060600a876040516116769190614d78565b90815260200160405180910390206001018054600181600116156101000203166002900480601f01602080910402602001604051908101604052809291908181526020018280546001816001161561010002031660029004801561171b5780601f106116f05761010080835404028352916020019161171b565b820191906000526020600020905b8154815290600101906020018083116116fe57829003601f168201915b505050505090506060600a886040516117349190614d78565b90815260200160405180910390206002018054600181600116156101000203166002900480601f0160208091040260200160405190810160405280929190818152602001828054600181600116156101000203166002900480156117d95780601f106117ae576101008083540402835291602001916117d9565b820191906000526020600020905b8154815290600101906020018083116117bc57829003601f168201915b505050505090506000600a896040516117f29190614d78565b9081526020016040518091039020600301549050838383839750975097509750505050509193509193565b60606006805480602002602001604051908101604052809291908181526020016000905b82821015611b0557838290600052602060002090600502016040518060a0016040529081600082018054600181600116156101000203166002900480601f0160208091040260200160405190810160405280929190818152602001828054600181600116156101000203166002900480156118fd5780601f106118d2576101008083540402835291602001916118fd565b820191906000526020600020905b8154815290600101906020018083116118e057829003601f168201915b50505050508152602001600182018054600181600116156101000203166002900480601f01602080910402602001604051908101604052809291908181526020018280546001816001161561010002031660029004801561199f5780601f106119745761010080835404028352916020019161199f565b820191906000526020600020905b81548152906001019060200180831161198257829003601f168201915b50505050508152602001600282018054600181600116156101000203166002900480601f016020809104026020016040519081016040528092919081815260200182805460018160011615610100020316600290048015611a415780601f10611a1657610100808354040283529160200191611a41565b820191906000526020600020905b815481529060010190602001808311611a2457829003601f168201915b5050505050815260200160038201548152602001600482018054600181600116156101000203166002900480601f016020809104026020016040519081016040528092919081815260200182805460018160011615610100020316600290048015611aed5780601f10611ac257610100808354040283529160200191611aed565b820191906000526020600020905b815481529060010190602001808311611ad057829003601f168201915b50505050508152505081526020019060010190611841565b50505050905090565b60606007805480602002602001604051908101604052809291908181526020016000905b82821015611d545783829060005260206000209060040201604051806080016040529081600082018054600181600116156101000203166002900480601f016020809104026020016040519081016040528092919081815260200182805460018160011615610100020316600290048015611bee5780601f10611bc357610100808354040283529160200191611bee565b820191906000526020600020905b815481529060010190602001808311611bd157829003601f168201915b50505050508152602001600182018054600181600116156101000203166002900480601f016020809104026020016040519081016040528092919081815260200182805460018160011615610100020316600290048015611c905780601f10611c6557610100808354040283529160200191611c90565b820191906000526020600020905b815481529060010190602001808311611c7357829003601f168201915b50505050508152602001600282018054600181600116156101000203166002900480601f016020809104026020016040519081016040528092919081815260200182805460018160011615610100020316600290048015611d325780601f10611d0757610100808354040283529160200191611d32565b820191906000526020600020905b815481529060010190602001808311611d1557829003601f168201915b5050505050815260200160038201548152505081526020019060010190611b32565b50505050905090565b6040518060400160405280600781526020017f435245415445520000000000000000000000000000000000000000000000000081525080604051602001611da49190614e29565b60405160208183030381529060405280519060200120600860003373ffffffffffffffffffffffffffffffffffffffff1673ffffffffffffffffffffffffffffffffffffffff168152602001908152602001600020604051602001611e099190614f14565b6040516020818303038152906040528051906020012014611e2957600080fd5b611e3161450f565b604051806080016040528087815260200186815260200185815260200184815250905060006003805490501415611ef957600381908060018154018082558091505090600182039060005260206000209060040201600090919290919091506000820151816000019080519060200190611eac929190614537565b506020820151816001019080519060200190611ec9929190614537565b506040820151816002019080519060200190611ee6929190614537565b50606082015181600301555050506120bf565b6000633b9aca00905060008090505b600380549050811015611f9957604051602001611f2490614dbb565b6040516020818303038152906040528051906020012060038281548110611f4757fe5b9060005260206000209060040201600001604051602001611f689190614d8f565b604051602081830303815290604052805190602001201415611f8c57809150611f99565b8080600101915050611f08565b50633b9aca00811461202a578160038281548110611fb357fe5b90600052602060002090600402016000820151816000019080519060200190611fdd929190614537565b506020820151816001019080519060200190611ffa929190614537565b506040820151816002019080519060200190612017929190614537565b50606082015181600301559050506120bd565b600382908060018154018082558091505090600182039060005260206000209060040201600090919290919091506000820151816000019080519060200190612074929190614537565b506020820151816001019080519060200190612091929190614537565b5060408201518160020190805190602001906120ae929190614537565b50606082015181600301555050505b505b80600a876040516120d09190614d78565b908152602001604051809103902060008201518160000190805190602001906120fa929190614537565b506020820151816001019080519060200190612117929190614537565b506040820151816002019080519060200190612134929190614537565b50606082015181600301559050506040518060400160405280600781526020017f57414954494e4700000000000000000000000000000000000000000000000000815250600c876040516121889190614d78565b908152602001604051809103902090805190602001906121a992919061448f565b50505050505050565b606080606060006060806009876040516121cc9190614d78565b90815260200160405180910390206000018054600181600116156101000203166002900480601f0160208091040260200160405190810160405280929190818152602001828054600181600116156101000203166002900480156122715780601f1061224657610100808354040283529160200191612271565b820191906000526020600020905b81548152906001019060200180831161225457829003601f168201915b50505050509050606060098860405161228a9190614d78565b90815260200160405180910390206001018054600181600116156101000203166002900480601f01602080910402602001604051908101604052809291908181526020018280546001816001161561010002031660029004801561232f5780601f106123045761010080835404028352916020019161232f565b820191906000526020600020905b81548152906001019060200180831161231257829003601f168201915b5050505050905060606009896040516123489190614d78565b90815260200160405180910390206002018054600181600116156101000203166002900480601f0160208091040260200160405190810160405280929190818152602001828054600181600116156101000203166002900480156123ed5780601f106123c2576101008083540402835291602001916123ed565b820191906000526020600020905b8154815290600101906020018083116123d057829003601f168201915b50505050509050600060098a6040516124069190614d78565b9081526020016040518091039020600301549050606060098b60405161242c9190614d78565b90815260200160405180910390206004018054600181600116156101000203166002900480601f0160208091040260200160405190810160405280929190818152602001828054600181600116156101000203166002900480156124d15780601f106124a6576101008083540402835291602001916124d1565b820191906000526020600020905b8154815290600101906020018083116124b457829003601f168201915b50505050509050848484848499509950995099509950505050505091939590929450565b606080606060006060806002878154811061250c57fe5b90600052602060002090600502016000018054600181600116156101000203166002900480601f0160208091040260200160405190810160405280929190818152602001828054600181600116156101000203166002900480156125b15780601f10612586576101008083540402835291602001916125b1565b820191906000526020600020905b81548152906001019060200180831161259457829003601f168201915b505050505090506060600288815481106125c757fe5b90600052602060002090600502016001018054600181600116156101000203166002900480601f01602080910402602001604051908101604052809291908181526020018280546001816001161561010002031660029004801561266c5780601f106126415761010080835404028352916020019161266c565b820191906000526020600020905b81548152906001019060200180831161264f57829003601f168201915b5050505050905060606002898154811061268257fe5b90600052602060002090600502016002018054600181600116156101000203166002900480601f0160208091040260200160405190810160405280929190818152602001828054600181600116156101000203166002900480156127275780601f106126fc57610100808354040283529160200191612727565b820191906000526020600020905b81548152906001019060200180831161270a57829003601f168201915b50505050509050600060028a8154811061273d57fe5b9060005260206000209060050201600301549050606060028b8154811061276057fe5b90600052602060002090600502016004018054600181600116156101000203166002900480601f0160208091040260200160405190810160405280929190818152602001828054600181600116156101000203166002900480156128055780601f106127da57610100808354040283529160200191612805565b820191906000526020600020905b8154815290600101906020018083116127e857829003601f168201915b50505050509050848484848499509950995099509950505050505091939590929450565b6040518060400160405280600781526020017f4352454154455200000000000000000000000000000000000000000000000000815250806040516020016128709190614e29565b60405160208183030381529060405280519060200120600860003373ffffffffffffffffffffffffffffffffffffffff1673ffffffffffffffffffffffffffffffffffffffff1681526020019081526020016000206040516020016128d59190614f14565b60405160208183030381529060405280519060200120146128f557600080fd5b6128fd6145b7565b6040518060a00160405280888152602001878152602001868152602001858152602001848152509050600060028054905014156129e85760028190806001815401808255809150509060018203906000526020600020906005020160009091929091909150600082015181600001908051906020019061297e929190614537565b50602082015181600101908051906020019061299b929190614537565b5060408201518160020190805190602001906129b8929190614537565b506060820151816003015560808201518160040190805190602001906129df929190614537565b50505050612be8565b6000633b9aca00905060008090505b600280549050811015612a8857604051602001612a1390614dbb565b6040516020818303038152906040528051906020012060028281548110612a3657fe5b9060005260206000209060050201600001604051602001612a579190614d8f565b604051602081830303815290604052805190602001201415612a7b57809150612a88565b80806001019150506129f7565b50633b9aca008114612b36578160028281548110612aa257fe5b90600052602060002090600502016000820151816000019080519060200190612acc929190614537565b506020820151816001019080519060200190612ae9929190614537565b506040820151816002019080519060200190612b06929190614537565b50606082015181600301556080820151816004019080519060200190612b2d929190614537565b50905050612be6565b600282908060018154018082558091505090600182039060005260206000209060050201600090919290919091506000820151816000019080519060200190612b80929190614537565b506020820151816001019080519060200190612b9d929190614537565b506040820151816002019080519060200190612bba929190614537565b50606082015181600301556080820151816004019080519060200190612be1929190614537565b505050505b505b80600988604051612bf99190614d78565b90815260200160405180910390206000820151816000019080519060200190612c23929190614537565b506020820151816001019080519060200190612c40929190614537565b506040820151816002019080519060200190612c5d929190614537565b50606082015181600301556080820151816004019080519060200190612c84929190614537565b509050506040518060400160405280600781526020017f57414954494e4700000000000000000000000000000000000000000000000000815250600b88604051612cce9190614d78565b90815260200160405180910390209080519060200190612cef92919061448f565b5050505050505050565b60608060606000606060038681548110612d0f57fe5b90600052602060002090600402016000018054600181600116156101000203166002900480601f016020809104026020016040519081016040528092919081815260200182805460018160011615610100020316600290048015612db45780601f10612d8957610100808354040283529160200191612db4565b820191906000526020600020905b815481529060010190602001808311612d9757829003601f168201915b50505050509050606060038781548110612dca57fe5b90600052602060002090600402016001018054600181600116156101000203166002900480601f016020809104026020016040519081016040528092919081815260200182805460018160011615610100020316600290048015612e6f5780601f10612e4457610100808354040283529160200191612e6f565b820191906000526020600020905b815481529060010190602001808311612e5257829003601f168201915b50505050509050606060038881548110612e8557fe5b90600052602060002090600402016002018054600181600116156101000203166002900480601f016020809104026020016040519081016040528092919081815260200182805460018160011615610100020316600290048015612f2a5780601f10612eff57610100808354040283529160200191612f2a565b820191906000526020600020905b815481529060010190602001808311612f0d57829003601f168201915b50505050509050600060038981548110612f4057fe5b9060005260206000209060040201600301549050838383839750975097509750505050509193509193565b6040518060400160405280600781526020017f434845434b45520000000000000000000000000000000000000000000000000081525080604051602001612fb29190614e29565b60405160208183030381529060405280519060200120600860003373ffffffffffffffffffffffffffffffffffffffff1673ffffffffffffffffffffffffffffffffffffffff1681526020019081526020016000206040516020016130179190614f14565b604051602081830303815290604052805190602001201461303757600080fd5b6040518060400160405280600881526020017f415050524f564544000000000000000000000000000000000000000000000000815250600b8360405161307d9190614d78565b9081526020016040518091039020908051906020019061309e92919061448f565b50600060048054905014156132c75760046009836040516130bf9190614d78565b9081526020016040518091039020908060018154018082558091505090600182039060005260206000209060050201600090919290919091506000820181600001908054600181600116156101000203166002900461311f9291906143c0565b50600182018160010190805460018160011615610100020316600290046131479291906143c0565b506002820181600201908054600181600116156101000203166002900461316f9291906143c0565b5060038201548160030155600482018160040190805460018160011615610100020316600290046131a19291906143c0565b5050505060008090505b6002805490508110156132c1576009836040516131c89190614d78565b90815260200160405180910390206000016040516020016131e99190614d8f565b604051602081830303815290604052805190602001206002828154811061320c57fe5b906000526020600020906005020160000160405160200161322d9190614d8f565b6040516020818303038152906040528051906020012014156132b4576002818154811061325657fe5b9060005260206000209060050201600080820160006132759190614447565b6001820160006132859190614447565b6002820160006132959190614447565b60038201600090556004820160006132ad9190614447565b50506132c1565b80806001019150506131ab565b5061377e565b600080905060008090505b600480549050811015613560576040516020016132ee90614dbb565b604051602081830303815290604052805190602001206004828154811061331157fe5b90600052602060002090600502016000016040516020016133329190614d8f565b6040516020818303038152906040528051906020012014156135535760008090505b600280549050811015613551576009856040516133719190614d78565b90815260200160405180910390206000016040516020016133929190614d8f565b60405160208183030381529060405280519060200120600282815481106133b557fe5b90600052602060002090600502016000016040516020016133d69190614d8f565b60405160208183030381529060405280519060200120141561354457600281815481106133ff57fe5b90600052602060002090600502016004838154811061341a57fe5b90600052602060002090600502016000820181600001908054600181600116156101000203166002900461344f9291906143c0565b50600182018160010190805460018160011615610100020316600290046134779291906143c0565b506002820181600201908054600181600116156101000203166002900461349f9291906143c0565b5060038201548160030155600482018160040190805460018160011615610100020316600290046134d19291906143c0565b50905050600281815481106134e257fe5b9060005260206000209060050201600080820160006135019190614447565b6001820160006135119190614447565b6002820160006135219190614447565b60038201600090556004820160006135399190614447565b505060019250613551565b8080600101915050613354565b505b80806001019150506132d2565b508061377c5760046009846040516135789190614d78565b908152602001604051809103902090806001815401808255809150509060018203906000526020600020906005020160009091929091909150600082018160000190805460018160011615610100020316600290046135d89291906143c0565b50600182018160010190805460018160011615610100020316600290046136009291906143c0565b50600282018160020190805460018160011615610100020316600290046136289291906143c0565b50600382015481600301556004820181600401908054600181600116156101000203166002900461365a9291906143c0565b5050505060008090505b60028054905081101561377a576009846040516136819190614d78565b90815260200160405180910390206000016040516020016136a29190614d8f565b60405160208183030381529060405280519060200120600282815481106136c557fe5b90600052602060002090600502016000016040516020016136e69190614d8f565b60405160208183030381529060405280519060200120141561376d576002818154811061370f57fe5b90600052602060002090600502016000808201600061372e9190614447565b60018201600061373e9190614447565b60028201600061374e9190614447565b60038201600090556004820160006137669190614447565b505061377a565b8080600101915050613664565b505b505b5050565b6000600280549050905090565b60606005805480602002602001604051908101604052809291908181526020016000905b828210156139d55783829060005260206000209060040201604051806080016040529081600082018054600181600116156101000203166002900480601f01602080910402602001604051908101604052809291908181526020018280546001816001161561010002031660029004801561386f5780601f106138445761010080835404028352916020019161386f565b820191906000526020600020905b81548152906001019060200180831161385257829003601f168201915b50505050508152602001600182018054600181600116156101000203166002900480601f0160208091040260200160405190810160405280929190818152602001828054600181600116156101000203166002900480156139115780601f106138e657610100808354040283529160200191613911565b820191906000526020600020905b8154815290600101906020018083116138f457829003601f168201915b50505050508152602001600282018054600181600116156101000203166002900480601f0160208091040260200160405190810160405280929190818152602001828054600181600116156101000203166002900480156139b35780601f10613988576101008083540402835291602001916139b3565b820191906000526020600020905b81548152906001019060200180831161399657829003601f168201915b50505050508152602001600382015481525050815260200190600101906137b3565b50505050905090565b60606004805480602002602001604051908101604052809291908181526020016000905b82821015613cc657838290600052602060002090600502016040518060a0016040529081600082018054600181600116156101000203166002900480601f016020809104026020016040519081016040528092919081815260200182805460018160011615610100020316600290048015613abe5780601f10613a9357610100808354040283529160200191613abe565b820191906000526020600020905b815481529060010190602001808311613aa157829003601f168201915b50505050508152602001600182018054600181600116156101000203166002900480601f016020809104026020016040519081016040528092919081815260200182805460018160011615610100020316600290048015613b605780601f10613b3557610100808354040283529160200191613b60565b820191906000526020600020905b815481529060010190602001808311613b4357829003601f168201915b50505050508152602001600282018054600181600116156101000203166002900480601f016020809104026020016040519081016040528092919081815260200182805460018160011615610100020316600290048015613c025780601f10613bd757610100808354040283529160200191613c02565b820191906000526020600020905b815481529060010190602001808311613be557829003601f168201915b5050505050815260200160038201548152602001600482018054600181600116156101000203166002900480601f016020809104026020016040519081016040528092919081815260200182805460018160011615610100020316600290048015613cae5780601f10613c8357610100808354040283529160200191613cae565b820191906000526020600020905b815481529060010190602001808311613c9157829003601f168201915b50505050508152505081526020019060010190613a02565b50505050905090565b6040518060400160405280600781526020017f434845434b45520000000000000000000000000000000000000000000000000081525080604051602001613d169190614e29565b60405160208183030381529060405280519060200120600860003373ffffffffffffffffffffffffffffffffffffffff1673ffffffffffffffffffffffffffffffffffffffff168152602001908152602001600020604051602001613d7b9190614f14565b6040516020818303038152906040528051906020012014613d9b57600080fd5b6007600a83604051613dad9190614d78565b90815260200160405180910390209080600181540180825580915050906001820390600052602060002090600402016000909192909190915060008201816000019080546001816001161561010002031660029004613e0d9291906143c0565b5060018201816001019080546001816001161561010002031660029004613e359291906143c0565b5060028201816002019080546001816001161561010002031660029004613e5d9291906143c0565b5060038201548160030155505050604051602001613e7a90614da6565b60405160208183030381529060405280519060200120600c83604051613ea09190614d78565b9081526020016040518091039020604051602001613ebe9190614d8f565b6040516020818303038152906040528051906020012014156140225760008090505b600380549050816fffffffffffffffffffffffffffffffff16101561401c57600a83604051613f0f9190614d78565b9081526020016040518091039020600001604051602001613f309190614f14565b604051602081830303815290604052805190602001206003826fffffffffffffffffffffffffffffffff1681548110613f6557fe5b9060005260206000209060040201600001604051602001613f869190614f14565b60405160208183030381529060405280519060200120141561400f576003816fffffffffffffffffffffffffffffffff1681548110613fc157fe5b906000526020600020906004020160008082016000613fe09190614447565b600182016000613ff09190614447565b6002820160006140009190614447565b6003820160009055505061401c565b8080600101915050613ee0565b506141d6565b60405160200161403190614dd0565b60405160208183030381529060405280519060200120600c836040516140579190614d78565b90815260200160405180910390206040516020016140759190614d8f565b6040516020818303038152906040528051906020012014156141d55760008090505b600580549050816fffffffffffffffffffffffffffffffff1610156141d357600a836040516140c69190614d78565b90815260200160405180910390206000016040516020016140e79190614f14565b604051602081830303815290604052805190602001206005826fffffffffffffffffffffffffffffffff168154811061411c57fe5b906000526020600020906004020160000160405160200161413d9190614f14565b6040516020818303038152906040528051906020012014156141c6576005816fffffffffffffffffffffffffffffffff168154811061417857fe5b9060005260206000209060040201600080820160006141979190614447565b6001820160006141a79190614447565b6002820160006141b79190614447565b600382016000905550506141d3565b8080600101915050614097565b505b5b600a826040516141e69190614d78565b9081526020016040518091039020600080820160006142059190614447565b6001820160006142159190614447565b6002820160006142259190614447565b600382016000905550505050565b60606040518060400160405280600781526020017f434845434b4552000000000000000000000000000000000000000000000000008152508060405160200161427c9190614e29565b60405160208183030381529060405280519060200120600860003373ffffffffffffffffffffffffffffffffffffffff1673ffffffffffffffffffffffffffffffffffffffff1681526020019081526020016000206040516020016142e19190614f14565b604051602081830303815290604052805190602001201461430157600080fd5b600c836040516143119190614d78565b90815260200160405180910390208054600181600116156101000203166002900480601f0160208091040260200160405190810160405280929190818152602001828054600181600116156101000203166002900480156143b35780601f10614388576101008083540402835291602001916143b3565b820191906000526020600020905b81548152906001019060200180831161439657829003601f168201915b5050505050915050919050565b828054600181600116156101000203166002900490600052602060002090601f016020900481019282601f106143f95780548555614436565b8280016001018555821561443657600052602060002091601f016020900482015b8281111561443557825482559160010191906001019061441a565b5b50905061444391906145e6565b5090565b50805460018160011615610100020316600290046000825580601f1061446d575061448c565b601f01602090049060005260206000209081019061448b91906145e6565b5b50565b828054600181600116156101000203166002900490600052602060002090601f016020900481019282601f106144d057805160ff19168380011785556144fe565b828001600101855582156144fe579182015b828111156144fd5782518255916020019190600101906144e2565b5b50905061450b91906145e6565b5090565b6040518060800160405280606081526020016060815260200160608152602001600081525090565b828054600181600116156101000203166002900490600052602060002090601f016020900481019282601f1061457857805160ff19168380011785556145a6565b828001600101855582156145a6579182015b828111156145a557825182559160200191906001019061458a565b5b5090506145b391906145e6565b5090565b6040518060a0016040528060608152602001606081526020016060815260200160008152602001606081525090565b61460891905b808211156146045760008160009055506001016145ec565b5090565b90565b60008135905061461a81615103565b92915050565b600082601f83011261463157600080fd5b813561464461463f82614f7e565b614f51565b9150808252602083016020830185838301111561466057600080fd5b61466b8382846150b0565b50505092915050565b6000813590506146838161511a565b92915050565b60006020828403121561469b57600080fd5b60006146a98482850161460b565b91505092915050565b600080604083850312156146c557600080fd5b60006146d38582860161460b565b925050602083013567ffffffffffffffff8111156146f057600080fd5b6146fc85828601614620565b9150509250929050565b60006020828403121561471857600080fd5b600082013567ffffffffffffffff81111561473257600080fd5b61473e84828501614620565b91505092915050565b6000806000806080858703121561475d57600080fd5b600085013567ffffffffffffffff81111561477757600080fd5b61478387828801614620565b945050602085013567ffffffffffffffff8111156147a057600080fd5b6147ac87828801614620565b935050604085013567ffffffffffffffff8111156147c957600080fd5b6147d587828801614620565b92505060606147e687828801614674565b91505092959194509250565b600080600080600060a0868803121561480a57600080fd5b600086013567ffffffffffffffff81111561482457600080fd5b61483088828901614620565b955050602086013567ffffffffffffffff81111561484d57600080fd5b61485988828901614620565b945050604086013567ffffffffffffffff81111561487657600080fd5b61488288828901614620565b935050606061489388828901614674565b925050608086013567ffffffffffffffff8111156148b057600080fd5b6148bc88828901614620565b9150509295509295909350565b6000602082840312156148db57600080fd5b60006148e984828501614674565b91505092915050565b60006148fe8383614c5e565b905092915050565b60006149128383614ccf565b905092915050565b600061492582614fdf565b61492f8185615025565b93508360208202850161494185614faa565b8060005b8581101561497d578484038952815161495e85826148f2565b94506149698361500b565b925060208a01995050600181019050614945565b50829750879550505050505092915050565b600061499a82614fea565b6149a48185615036565b9350836020820285016149b685614fba565b8060005b858110156149f257848403895281516149d38582614906565b94506149de83615018565b925060208a019950506001810190506149ba565b50829750879550505050505092915050565b6000614a0f82615000565b614a198185615058565b9350614a298185602086016150bf565b614a32816150f2565b840191505092915050565b6000614a4882615000565b614a528185615069565b9350614a628185602086016150bf565b80840191505092915050565b6000614a7982614ff5565b614a838185615047565b9350614a938185602086016150bf565b614a9c816150f2565b840191505092915050565b600081546001811660008114614ac45760018114614aea57614b2e565b607f6002830416614ad58187615058565b955060ff198316865260208601935050614b2e565b60028204614af88187615058565b9550614b0385614fca565b60005b82811015614b2557815481890152600182019150602081019050614b06565b80880195505050505b505092915050565b600081546001811660008114614b535760018114614b7857614bbc565b607f6002830416614b648187615069565b955060ff1983168652808601935050614bbc565b60028204614b868187615069565b9550614b9185614fca565b60005b82811015614bb357815481890152600182019150602081019050614b94565b82880195505050505b505092915050565b6000614bd1600783615069565b91507f57414954494e47000000000000000000000000000000000000000000000000006000830152600782019050919050565b6000614c11600083615069565b9150600082019050919050565b6000614c2b600883615069565b91507f415050524f5645440000000000000000000000000000000000000000000000006000830152600882019050919050565b60006080830160008301518482036000860152614c7b8282614a6e565b91505060208301518482036020860152614c958282614a6e565b91505060408301518482036040860152614caf8282614a6e565b9150506060830151614cc46060860182614d5a565b508091505092915050565b600060a0830160008301518482036000860152614cec8282614a6e565b91505060208301518482036020860152614d068282614a6e565b91505060408301518482036040860152614d208282614a6e565b9150506060830151614d356060860182614d5a565b5060808301518482036080860152614d4d8282614a6e565b9150508091505092915050565b614d63816150a6565b82525050565b614d72816150a6565b82525050565b6000614d848284614a3d565b915081905092915050565b6000614d9b8284614b36565b915081905092915050565b6000614db182614bc4565b9150819050919050565b6000614dc682614c04565b9150819050919050565b6000614ddb82614c1e565b9150819050919050565b60006020820190508181036000830152614dff818461491a565b905092915050565b60006020820190508181036000830152614e21818461498f565b905092915050565b60006020820190508181036000830152614e438184614a04565b905092915050565b60006080820190508181036000830152614e658187614a04565b90508181036020830152614e798186614a04565b90508181036040830152614e8d8185614a04565b9050614e9c6060830184614d69565b95945050505050565b600060a0820190508181036000830152614ebf8188614a04565b90508181036020830152614ed38187614a04565b90508181036040830152614ee78186614a04565b9050614ef66060830185614d69565b8181036080830152614f088184614a04565b90509695505050505050565b60006020820190508181036000830152614f2e8184614aa7565b905092915050565b6000602082019050614f4b6000830184614d69565b92915050565b6000604051905081810181811067ffffffffffffffff82111715614f7457600080fd5b8060405250919050565b600067ffffffffffffffff821115614f9557600080fd5b601f19601f8301169050602081019050919050565b6000819050602082019050919050565b6000819050602082019050919050565b60008190508160005260206000209050919050565b600081519050919050565b600081519050919050565b600081519050919050565b600081519050919050565b6000602082019050919050565b6000602082019050919050565b600082825260208201905092915050565b600082825260208201905092915050565b600082825260208201905092915050565b600082825260208201905092915050565b600081905092915050565b600061507f82615086565b9050919050565b600073ffffffffffffffffffffffffffffffffffffffff82169050919050565b6000819050919050565b82818337600083830152505050565b60005b838110156150dd5780820151818401526020810190506150c2565b838111156150ec576000848401525b50505050565b6000601f19601f8301169050919050565b61510c81615074565b811461511757600080fd5b50565b615123816150a6565b811461512e57600080fd5b5056fea365627a7a72315820200054e0cf807fc36f64b5dfedee91f6c40995747c745b4f587d638489c364b96c6578706572696d656e74616cf564736f6c63430005100040",
  "source": "pragma solidity >=0.4.22 <0.6.0;\r\npragma experimental ABIEncoderV2;\r\n\r\ncontract akys{\r\n    struct NeedOffer{\r\n        string needID;\r\n        string personalDataHash;\r\n        string needType;\r\n        uint256 needAmount;\r\n    }\r\n    \r\n    struct SupportOffer{\r\n        string supportID;\r\n        string personalDataHash;\r\n        string supportType;\r\n        uint256 supportAmount;\r\n        string sendType;\r\n    }\r\n    \r\n    // Total Count of Offers\r\n    uint256 TotalCountSupportOffers;\r\n    uint256 TotalCountNeedOffers;\r\n\r\n    // Added Support Offers\r\n    SupportOffer[] SupportOfferList;\r\n\r\n    // Added All Need Offers  \r\n    NeedOffer[] NeedOfferList;\r\n    \r\n    // Approved Support Offers\r\n    SupportOffer[] ApprovedSupportOfferList;\r\n\r\n    // Approved Need Offers Count\r\n    NeedOffer[] ApprovedNeedOfferList;\r\n    \r\n    // Canceled Support Offers\r\n    SupportOffer[] CanceledSupportOfferList;\r\n    \r\n    // Canceled Need Offers Count\r\n    NeedOffer[] CanceledNeedOfferList;\r\n    \r\n    // User Auth\r\n    mapping(address => string) UserAuth;\r\n    \r\n    // Need & Support Maps\r\n    // supportID -> SupportOffer\r\n    mapping(string => SupportOffer) SupportOfferMap;\r\n    // needID -> NeedOffer\r\n    mapping(string => NeedOffer) NeedOfferMap;\r\n\r\n    // Status of Offers\r\n    // supportID -> Status\r\n    mapping(string=>string) SupportOfferStatus;\r\n    // needID -> Status\r\n    mapping(string=>string) NeedOfferStatus;\r\n\r\n\r\n    modifier checkAuth(string memory _role){\r\n        require(keccak256(abi.encode(UserAuth[msg.sender])) == keccak256(abi.encode(_role)));\r\n        _;\r\n    }\r\n    \r\n    constructor() public{\r\n        UserAuth[msg.sender] = \"ADMIN\";\r\n    }\r\n    \r\n    // Set User Role to a User Address\r\n    function setUser(address _userAddress, string memory _role) public checkAuth(\"ADMIN\"){\r\n        UserAuth[_userAddress] = _role;\r\n    }\r\n     \r\n    // Get User's Role \r\n    function getUserAuth(address _userAddress) public view checkAuth(\"ADMIN\") returns ( string memory){\r\n        return UserAuth[_userAddress];\r\n    }\r\n    \r\n    // Create a new Support\r\n    function createSupport(\r\n        string memory _supportID,\r\n        string memory _personalDataHash, \r\n        string memory _supportType, \r\n        uint256 _supportAmount, \r\n        string memory _sendType)public checkAuth(\"CREATER\"){\r\n        SupportOffer memory newSupportOffer = SupportOffer({\r\n            supportID : _supportID,\r\n            supportType : _supportType,\r\n            personalDataHash : _personalDataHash,\r\n            supportAmount : _supportAmount,\r\n            sendType : _sendType\r\n        });\r\n\r\n        if(SupportOfferList.length == 0){\r\n            SupportOfferList.push(newSupportOffer);\r\n        }else{\r\n            uint256 num = 1000000000;\r\n            for (uint256 i=0;i<SupportOfferList.length;i++){\r\n                if(keccak256(abi.encodePacked(SupportOfferList[i].supportID)) == keccak256(abi.encodePacked(\"\"))){\r\n                    num = i;\r\n                    break;\r\n                }\r\n            }\r\n            if (num != 1000000000){\r\n                SupportOfferList[num] = newSupportOffer;\r\n            }else{\r\n                SupportOfferList.push(newSupportOffer);\r\n            }\r\n        }        \r\n\r\n        SupportOfferMap[_supportID] = newSupportOffer;\r\n        SupportOfferStatus[_supportID] = \"WAITING\";\r\n\r\n    }\r\n    \r\n    // Create a new Need\r\n    function createNeed(\r\n        string memory _needID,\r\n        string memory _personalDataHash, \r\n        string memory _needType, \r\n        uint256 _needAmount\r\n         )public checkAuth(\"CREATER\"){\r\n        NeedOffer memory newNeedOffer =  NeedOffer({\r\n            personalDataHash : _personalDataHash,\r\n            needID : _needID,\r\n            needType : _needType,\r\n            needAmount : _needAmount\r\n        });\r\n\r\n        if(NeedOfferList.length == 0){\r\n            NeedOfferList.push(newNeedOffer);\r\n        }else{\r\n            uint256 num = 1000000000;\r\n            for (uint256 i=0;i<NeedOfferList.length;i++){\r\n                if(keccak256(abi.encodePacked(NeedOfferList[i].needID)) == keccak256(abi.encodePacked(\"\"))){\r\n                    num = i;\r\n                    break;\r\n                }\r\n            }\r\n            if (num != 1000000000){\r\n                NeedOfferList[num] = newNeedOffer;\r\n            }else{\r\n                NeedOfferList.push(newNeedOffer);\r\n            }\r\n        }\r\n\r\n        NeedOfferMap[_needID] = newNeedOffer;\r\n        NeedOfferStatus[_needID] = \"WAITING\";\r\n\r\n    }\r\n\r\n    /*\r\n    function showSupport(string memory _supportID)public view returns(SupportOffer memory){\r\n        return SupportOfferMap[_supportID];\r\n    }\r\n\r\n    function showNeed(string memory _needID)public view returns(NeedOffer memory){\r\n        return NeedOfferMap[_needID];\r\n    }\r\n    */\r\n\r\n    function showSupportByIndex(uint _supportIndex)public view returns(string memory,string memory,string memory,uint256,string memory){\r\n        string memory supportID = SupportOfferList[_supportIndex].supportID;\r\n        string memory personalDataHash = SupportOfferList[_supportIndex].personalDataHash;\r\n        string memory supportType = SupportOfferList[_supportIndex].supportType;\r\n        uint supportAmount = SupportOfferList[_supportIndex].supportAmount;\r\n        string memory sendType = SupportOfferList[_supportIndex].sendType;\r\n        return (supportID,personalDataHash,supportType,supportAmount,sendType);\r\n    }\r\n\r\n    function showNeedByIndex(uint _needIndex)public view returns(string memory,string memory,string memory,uint256){\r\n        string memory needID = NeedOfferList[_needIndex].needID;\r\n        string memory personalDataHash = NeedOfferList[_needIndex].personalDataHash;\r\n        string memory needType = NeedOfferList[_needIndex].needType;\r\n        uint needAmount = NeedOfferList[_needIndex].needAmount;\r\n        return (needID,personalDataHash,needType,needAmount);\r\n    }\r\n\r\n    function showSupportByID(string memory _supportID)public view returns(string memory,string memory,string memory,uint256,string memory){\r\n        string memory supportID = SupportOfferMap[_supportID].supportID;\r\n        string memory personalDataHash = SupportOfferMap[_supportID].personalDataHash;\r\n        string memory supportType = SupportOfferMap[_supportID].supportType;\r\n        uint supportAmount = SupportOfferMap[_supportID].supportAmount;\r\n        string memory sendType = SupportOfferMap[_supportID].sendType;\r\n        return (supportID,personalDataHash,supportType,supportAmount,sendType);\r\n    }\r\n\r\n    function showNeedByID(string memory _needID)public view returns(string memory,string memory,string memory,uint256){\r\n        string memory needID = NeedOfferMap[_needID].needID;\r\n        string memory personalDataHash = NeedOfferMap[_needID].personalDataHash;\r\n        string memory needType = NeedOfferMap[_needID].needType;\r\n        uint needAmount = NeedOfferMap[_needID].needAmount;\r\n        return (needID,personalDataHash,needType,needAmount);\r\n    }\r\n\r\n    function approveSupport(string memory _supportID) public  checkAuth(\"CHECKER\"){\r\n        SupportOfferStatus[_supportID] = \"APPROVED\";\r\n        if(ApprovedSupportOfferList.length == 0){\r\n            ApprovedSupportOfferList.push(SupportOfferMap[_supportID]);\r\n            for (uint256 j = 0; j<SupportOfferList.length; j++){\r\n                if(keccak256(abi.encodePacked(SupportOfferList[j].supportID)) == keccak256(abi.encodePacked(SupportOfferMap[_supportID].supportID))){\r\n                    delete SupportOfferList[j];\r\n                    break;\r\n                }\r\n            }\r\n        }else{\r\n            bool check = false;\r\n            for (uint256 i=0;i<ApprovedSupportOfferList.length;i++){\r\n                if(keccak256(abi.encodePacked(ApprovedSupportOfferList[i].supportID)) == keccak256(abi.encodePacked(\"\"))){\r\n                    for (uint256 j = 0; j<SupportOfferList.length; j++){\r\n                        if(keccak256(abi.encodePacked(SupportOfferList[j].supportID)) == keccak256(abi.encodePacked(SupportOfferMap[_supportID].supportID))){\r\n                            ApprovedSupportOfferList[i] = SupportOfferList[j];\r\n                            delete SupportOfferList[j];\r\n                            check = true;\r\n                            break;\r\n                        }\r\n                    }\r\n                }\r\n            } \r\n            if (!check){\r\n                ApprovedSupportOfferList.push(SupportOfferMap[_supportID]);\r\n                for (uint256 j = 0; j<SupportOfferList.length; j++){\r\n                    if(keccak256(abi.encodePacked(SupportOfferList[j].supportID)) == keccak256(abi.encodePacked(SupportOfferMap[_supportID].supportID))){\r\n                        delete SupportOfferList[j];\r\n                        break;\r\n                    }\r\n                }\r\n            }\r\n        }\r\n    }\r\n\r\n    function approveNeed(string memory _needID) public  checkAuth(\"CHECKER\"){\r\n        NeedOfferStatus[_needID] = \"APPROVED\";\r\n        if(ApprovedNeedOfferList.length == 0){\r\n            ApprovedNeedOfferList.push(NeedOfferMap[_needID]);\r\n            for (uint256 j = 0; j<NeedOfferList.length; j++){\r\n                if(keccak256(abi.encodePacked(NeedOfferList[j].needID)) == keccak256(abi.encodePacked(NeedOfferMap[_needID].needID))){\r\n                    delete NeedOfferList[j];\r\n                    break;\r\n                }\r\n            }\r\n        }else{\r\n            bool check = false;\r\n            for (uint256 i=0;i<ApprovedNeedOfferList.length;i++){\r\n                if(keccak256(abi.encodePacked(ApprovedNeedOfferList[i].needID)) == keccak256(abi.encodePacked(\"\"))){\r\n                    for (uint256 j = 0; j<NeedOfferList.length; j++){\r\n                        if(keccak256(abi.encodePacked(NeedOfferList[j].needID)) == keccak256(abi.encodePacked(NeedOfferMap[_needID].needID))){\r\n                            ApprovedNeedOfferList[i] = NeedOfferList[j];\r\n                            delete NeedOfferList[j];\r\n                            check = true;\r\n                            break;\r\n                        }\r\n                    }\r\n                }\r\n            } \r\n            if (!check){\r\n                ApprovedNeedOfferList.push(NeedOfferMap[_needID]);\r\n                for (uint256 j = 0; j<NeedOfferList.length; j++){\r\n                    if(keccak256(abi.encodePacked(NeedOfferList[j].needID)) == keccak256(abi.encodePacked(NeedOfferMap[_needID].needID))){\r\n                        delete NeedOfferList[j];\r\n                        break;\r\n                    }\r\n                }\r\n            }\r\n        }\r\n    }\r\n\r\n    function cancelSupport(string memory _supportID) public  checkAuth(\"CHECKER\"){\r\n        CanceledSupportOfferList.push(SupportOfferMap[_supportID]);\r\n        if (keccak256(abi.encodePacked(SupportOfferStatus[_supportID])) == keccak256(abi.encodePacked(\"WAITING\"))){\r\n            for (uint128 i = 0; i<SupportOfferList.length; i++){\r\n                if(keccak256(abi.encode(SupportOfferList[i].supportID)) == keccak256(abi.encode(SupportOfferMap[_supportID].supportID))){\r\n                    delete SupportOfferList[i];\r\n                    break;\r\n                }\r\n            }\r\n        }else if(keccak256(abi.encodePacked(SupportOfferStatus[_supportID])) == keccak256(abi.encodePacked(\"APPROVED\"))){\r\n            for (uint128 i = 0; i<ApprovedSupportOfferList.length; i++){\r\n                if(keccak256(abi.encode(ApprovedSupportOfferList[i].supportID)) == keccak256(abi.encode(SupportOfferMap[_supportID].supportID))){\r\n                    delete ApprovedSupportOfferList[i];\r\n                    break;\r\n                }\r\n            }\r\n        }\r\n        delete SupportOfferMap[_supportID];\r\n    }\r\n\r\n    function cancelNeed(string memory _needID) public  checkAuth(\"CHECKER\"){\r\n        CanceledNeedOfferList.push(NeedOfferMap[_needID]);\r\n        if (keccak256(abi.encodePacked(NeedOfferStatus[_needID])) == keccak256(abi.encodePacked(\"WAITING\"))){\r\n            for (uint128 i = 0; i<NeedOfferList.length; i++){\r\n                if(keccak256(abi.encode(NeedOfferList[i].needID)) == keccak256(abi.encode(NeedOfferMap[_needID].needID))){\r\n                    delete NeedOfferList[i];\r\n                    break;\r\n                }\r\n            }\r\n        }else if(keccak256(abi.encodePacked(NeedOfferStatus[_needID])) == keccak256(abi.encodePacked(\"APPROVED\"))){\r\n            for (uint128 i = 0; i<ApprovedNeedOfferList.length; i++){\r\n                if(keccak256(abi.encode(ApprovedNeedOfferList[i].needID)) == keccak256(abi.encode(NeedOfferMap[_needID].needID))){\r\n                    delete ApprovedNeedOfferList[i];\r\n                    break;\r\n                }\r\n            }\r\n        }\r\n        delete NeedOfferMap[_needID];\r\n    }\r\n\r\n    /*\r\n    function showSupports()public view returns(SupportOffer[] memory){\r\n        return SupportOfferList;\r\n    }\r\n\r\n    function showNeeds()public view returns(NeedOffer[] memory){\r\n        return NeedOfferList;\r\n    }\r\n    */\r\n\r\n    function showAllApprovedSupports()public view returns(SupportOffer[] memory){\r\n        return ApprovedSupportOfferList;\r\n    }\r\n\r\n    function showAllApprovedNeeds()public view returns(NeedOffer[] memory){\r\n        return ApprovedNeedOfferList;\r\n    }\r\n   \r\n    function showSupportStatus(string memory _supportID) public view checkAuth(\"CHECKER\") returns (string memory) {\r\n        return SupportOfferStatus[_supportID];\r\n    }\r\n    \r\n    function showNeedStatus(string memory _needID) public view checkAuth(\"CHECKER\") returns (string memory) {\r\n        return NeedOfferStatus[_needID];\r\n    }\r\n\r\n    function showCanceledSupports() public view returns(SupportOffer[] memory) {\r\n        return CanceledSupportOfferList;\r\n    }\r\n\r\n    function showCanceledNeeds() public view returns(NeedOffer[] memory) {\r\n        return CanceledNeedOfferList;\r\n    }\r\n\r\n    function showTotalSupportCount() public view returns(uint256 count) {\r\n        return SupportOfferList.length;\r\n    }\r\n\r\n    function showTotalNeedCount() public view returns(uint256 count) {\r\n        return NeedOfferList.length;\r\n    }\r\n}",
  "sourcePath": "C:/Users/cemal/Desktop/akys/contracts/akys.sol",
  "compiler": {
    "name": "solc",
    "version": "0.5.16+commit.9c3226ce.Emscripten.clang"
  },
  "schemaVersion": "3.2.3",
  "updatedAt": "2020-08-31T11:36:38.403Z",
  "networkType": "ethereum",
  "devdoc": {
    "methods": {}
  },
  "userdoc": {
    "methods": {}
  }
}